:0400000000EFA0F07D
:100008007558755875587558755875587558755880
:100018007558755875587558755875587558755870
:100028007558755875587558755875587558755860
:100038007558755875587558755875587558755850
:100048007558755875587558755875587558755840
:100058007558755875587558755875587558755830
:100068007558755875587558755875587558755820
:10007800755875587558755842007558755875589B
:100088007558755875587558755875587558755800
:10009800755875587558755842007558755875587B
:1000A80075587558755875587558755875587558E0
:1000B80075587558755875587558755875587558D0
:1000C80075587558755875587558755875587558C0
:1000D80075587558755875587558755875587558B0
:1000E800420075587558755875587558755875582B
:1000F8007558755875587558755875587558755890
:02010800FF00F6
:10FFE000000D0A4D455A36383030382025322E3330
:10FFF000664D487A0D0A00696E66006E616E0000FB
:020000040001F9
:100000000000840000000106FFFFFFFFFFFFFFFF6D
:10001000FFFFFFFFFFFFFFFFFFFFFFFFFFFFFFFFF0
:10002000FFFFFFFFFFFFFFFFFFFFFFFFFFFFFFFFE0
:10003000FFFFFFFFFFFFFFFFFFFFFFFFFFFFFFFFD0
:10004000FFFFFFFFFFFFFFFFFFFFFFFFFFFFFFFFC0
:10005000FFFFFFFFFFFFFFFFFFFFFFFFFFFFFFFFB0
:10006000FFFFFFFFFFFFFFFFFFFFFFFFFFFFFFFFA0
:10007000FFFFFFFFFFFFFFFFFFFFFFFFFFFFFFFF90
:10008000FFFFFFFFFFFFFFFFFFFFFFFFFFFFFFFF80
:10009000FFFFFFFFFFFFFFFFFFFFFFFFFFFFFFFF70
:1000A000FFFFFFFFFFFFFFFFFFFFFFFFFFFFFFFF60
:1000B000FFFFFFFFFFFFFFFFFFFFFFFFFFFFFFFF50
:1000C000484010390000E001C03C000267F448409D
:1000D00013C00000E0004E7510390000E001C03C84
:1000E0000001671010390000E00000000000003C33
:1000F00000014E75000000004E757E2E600001224A
:100100007E2E6000011C207C00008000203C00004E
:1001100020002648D1C02748044A2E7C00008400D5
:10012000303C4EF9204F30C043FAFFE820C930C0C0
:1001300043FA00DC20C930C043FAFF9E20C930C01A
:1001400043FAFF7E20C930C043FAFFB020C930C057
:1001500043FAFFAE20C930C043FA263420C97000EC
:10016000174005E4174005E5174005E8374005EA64
:10017000374005D6177C005005E6177C000E05E2D7
:10018000177C003805E749EB048E41EB05EC274866
:10019000042E61000322610008A0202B044A90ABCA
:1001A000042E61001BDC41FA3404610008EA41FAC4
:1001B00029E861001A7441FA00922748040261009C
:1001C0001FE64EEB04007E2C60567E2A60527E288D
:1001D000604E7E26604A7E2460467E2260427E20FB
:1001E000603E7E1E603A7E1C60367E1A60327E184B
:1001F000602E7E16602A7E1460267E1260227E109B
:10020000601E7E0E601A7E0C60167E0A60127E08EA
:10021000600E7E06600A7E0460067E0260027E003A
:10022000610002CA6100081243FA2FFA3E317000E1
:1002300041F170006100086041FA333561000858EF
:10024000202B04526B0461001B2C41FA33566100D1
:10025000084672FF27410452174105DC4BEB04901E
:10026000610000EC61000BFC67F665086100015657
:10027000600003C6610006406100014A222B042A87
:100280006100021865322250202B04329089E288E6
:10029000538048402448484034D951C8FFFC484066
:1002A00051C8FFF4274A0432274A0436274A043A41
:1002B000274A043E274A0442102B04906764226BAD
:1002C000043245F12008274A0432274A0436274AD7
:1002D000043A274A043E274A0442276B044A04464C
:1002E00022099288E289538148414841352151C908
:1002F000FFFC484151C9FFF443EB0490244872FFCE
:1003000024C124EB042AE24A534234D951CAFFFCE7
:10031000601050484A1866FC320802410001D0C102
:10032000228822484A9066EA610001986000FF2412
:100330006100077E70206100077870086100077215
:10034000534160106100076870206100076472000B
:1003500041EB04904EAB040C64FA67F8B03C000724
:100360006718B03C000D670006CA4A416606B03CFB
:10037000002063E0B03C000867B6B27C00FF640C6C
:100380001180100052416100072860C8700760F6B4
:100390001180200052425241103510006700009435
:1003A000B03C002067EAB03C0030654AB03C003900
:1003B00063DE7ADFCA00BA3C00416540BA3C0046C1
:1003C00063CE603872002401174105DD70001035DE
:1003D0001000675EB03C005F6458B03C003C641C99
:1003E000B03C0030644C174005DAB03C0022677620
:1003F000B03C0024679AB03C002A6536082B000602
:1004000005DD662E903C002AD04043FA2C1A30318C
:1004100000006B6E43FA2FA6D2C076FF380152431C
:10042000103130006B0A5244B035400067F0604034
:10043000320411802000524252414A00674A903CE7
:10044000003A6706B03C00496604174005DD903C61
:1004500000556600FF78174005DA1035100067D2A6
:10046000B02B05DA67CC118020005242524160EA7D
:1004700038015243103130006AF8524310313000D5
:1004800066A21035100060AA700001026706118094
:1004900020005242218020004E75206B042E600205
:1004A000204020186708B2906EF659484E7559489A
:1004B00053804E75664E206B042E700020C0274876
:1004C00004322A6B042E534D276B044A0446202B1A
:1004D0000432274004362740043A2740043E274090
:1004E00004427000174005EA610001D049EB048E18
:1004F000201F2E7C000084002F0070002740045A2B
:10050000174005DF4E7567C04E75651272FF2741B3
:10051000042A72004A00670AB03C00B366E6610034
:1005200003966100FF766100093A6716B03C00B39C
:1005300066D272FF2741042A610009266704610020
:100540000376177C000005DD610004EE201867B417
:1005500022406100012C2018B0AB042A62A648E7B3
:1005600000C06100181C4CDF0300702061000542D0
:10057000B03C002266060A2B00FF05DD1018660855
:100580002049200866BC4E756AE24A2B05DD6BDC0B
:1005900045FA2AFE727FC200E54945F21000101AA2
:1005A0006100050E7200121A6BD2301245FA2E0E3F
:1005B00045F20000101A610004F851C9FFF860BC50
:1005C00061000396202B0472B0AB043A6C00FC204F
:1005D000610002142E882F2B045270AA6100087A41
:1005E000610007081F2B05B5610006FE2F2B059043
:1005F0003F2B0594277C800000000590377C81000C
:1006000005946100085EB03C00AF660861000852C6
:10061000610006D62F2B05903F2B05942F2B0472DB
:100620003F3C00816018300DC07C0001DAC0201D05
:100630006700FC18275D045261000828611A6140B8
:100640004A2B04526B04274D045A101D67D8B03C46
:10065000003A67E46000FBC46700008C0A00008079
:100660006B0002F6B03C00286400FBB04880D0402C
:1006700041FA287C3030000048700000600007E23A
:100680004EEB0424B03C0003670C4E7566FC177CEF
:10069000000005DC66F443EB0590BBC9650A274DF5
:1006A000045A276B04520456584F102B05DC670080
:1006B000FB9A41FA2EB36000FB84206B042E672066
:1006C000610001F4B2AB0452630E204D4A1866FC7F
:1006D0003008C07C0001D0C06100FDC86500FB246B
:1006E0004A20274804624E75610010E2174005E475
:1006F0004E756600FB264A2B04526A00FAE6202B50
:10070000045A6700FADE2A40276B045604524E75DD
:10071000660C6100FDAE274D045A6000FF226100A7
:10072000FDA8601C2F0D2F2B04523F3C009C487AE3
:10073000FF0E6000072E2F0D2F2B04523F3C008D23
:1007400061000720487AFEF86100016C206B042EDE
:10075000B2AB0452630E204D4A1866FC3008C07CD0
:100760000001D0C06100FD3C6500FA982A48534D55
:10077000274D045A4E750C6F009C00046600FA5C0D
:100780001E00672EBE3C003A67289E3C00B06708FA
:1007900053076600FA867EFF610006C661000562A7
:1007A0004A2B05946706177C00FF0594BF2B059420
:1007B0006614276F000604522A6F000A41FAFE8071
:1007C0002E886000069E4FEF000E601466160C6FB8
:1007D000008D00046600FA405C4F275F04522A5FD8
:1007E00061042A484E75204D7222743A6008B400A4
:1007F0006708B200670C101866F453484E75B200D3
:1008000067F4101866F860F2610004F6610006549F
:10081000B03C00AD6714B03C00896600F9FE204D85
:100820006100063E2A486400F9F2102B0594671E09
:100830006100062E6500FF12B03C008E6700FE1EB0
:100840006100FE161015B03C00A967944E75101D8E
:10085000163C00A9183C008B7A00101D6720B004DC
:100860006604524560F4B00366F051CDFFEE6100BE
:1008700005F26500FED46000FDE04A1D66FC534DA4
:100880004E7561000F481400610005D83F00B03C70
:10089000008D6708B03C00896600F9805302660647
:1008A000301F6000FDB8610005B8610AB03C002C43
:1008B00067EA301F4E7572002001610005A6642EA4
:1008C0002F022401D2816500F952D2816500F94CD2
:1008D000D2826500F946D2816500F940903C003033
:1008E000D2806900F9366100057865D6241F27415A
:1008F000042A4E753F3C8180600A3F3C81006004C1
:100900006100055E6100076C67324A2B05B56B001C
:10091000F8DE6636274804726100130E277C8000DB
:100920000000059830173740059C176B0595059E0C
:10093000B12B059E6100100E6100130A61000524B1
:100940000C00002C67BA544F4E754A2F0001660404
:10095000529060E8539060E46100071427480472E5
:100960001F2B05B570BD610004F061000394102BCE
:1009700005B5175F05B5E31861000372670012C67D
:10098000246B0472206B05902250B3EB044665166D
:10099000B1EB04326510720032280004205061006F
:1009A0000B06206B0590B9C866025C4C24D83490C5
:1009B0004E75610006BA274804724A2B05B56B0CC8
:1009C00061001DF2610009BC6000127A72002041D2
:1009D00061001DE26408720161000AFE108061007E
:1009E0000ADE609C610000B461000478674AB03C94
:1009F00000A86764B03C00AC675EB03C002C674068
:100A0000B03C003B67000086610002F64A2B05B54A
:100A10006BD2610013B261000A607000102B05E612
:100A2000670C902C0007902B05E56402610A616A4F
:100A300060B611BC00001000700D6174700A607027
:100A4000142B05E5B42B05E7650461EC603E942B9F
:100A500005E264FA440260223F0061000D6C34003C
:100A600061000400B03C00296600F7B0301FB03CC4
:100A700000A86606942B05E5631270005300C4803D
:100A8000670A70205302612851CAFFFC610003D23B
:100A90006600FF5C4E75610009E061000BD0670CD9
:100AA000320053411018610851C9FFFA4E75703F6A
:100AB0002F01B03C00206528122B05E66610122B92
:100AC00005E5922B05E26614174105E5600EB22B91
:100AD00005E566082F006100FF60201F522B05E529
:100AE0004EAB0412B03C000D66187200122B05E4E8
:100AF000670C70004EAB041251C9FFFA700D17411C
:100B000005E5221F4E752A5F4A2B05E06A0A276B0E
:100B1000045E04526000F6D841FA2A766100FF783C
:100B20002A6B045A4E7561000862B03C0022660EC2
:100B300061000306703B610003206100FF5E6100FD
:100B4000F80470004A10660A6000FB58206B0462CB
:100B50007098174005E02748046661000512274891
:100B600004722F0D2A6B0466610002F8661E4A2B80
:100B700005E06B726100FF386100F7CA4A10660435
:100B80006000FB202A48534D610002D64A2B05B570
:100B90006A201400B03C00226706743A702C534D52
:100BA000524D1600204D610008D42A4A6100FDD242
:100BB00060101F2B05B561001DA6175F05B561000C
:100BC00010846100029E670AB03C002C6600FF386A
:100BD000524D274D04662A5F610002886736487AC5
:100BE000FF7A600002726100FBFE2A48524DB03C61
:100BF000003A6712320DC27C0001DAC1241D670081
:100C0000F612275D045E6100025AB03C0083670063
:100C1000FF7860D2206B04664A2B05E06A062748FD
:100C200004624E754A1066024E7541FA29546000FE
:100C3000FE666610584F0C5700816600F5E2206F83
:100C40000002601C6100042C584F303C0081721C73
:100C50006002DFC1B0576600F5C6B1EF000266F270
:100C6000376F0006059C276F00080598176F001264
:100C700005B56100021E176B059D059E102B05959D
:100C8000B12B059E2748047261000CBA176F001241
:100C900005B561000FB0376F000C059C276F000E83
:100CA0000598176B059D059E102B0595B12B059E8C
:100CB0006100103C322F0006B1414A0067044A012E
:100CC0006A0E276F001404522A6F00186000F97032
:100CD000DEFC001C6100018CB03C002C6600F96059
:100CE0006100017E6100FF5E6116B040082B0007C5
:100CF00005B566066500F4F84E756400F4F24E75AD
:100D0000534D7200174105B5601C41FA22CA3030BC
:100D10001002487000002F2B05903F2B05941F2BCD
:100D200005E3323010003F01610000E4177C000051
:100D300005E36100012E903C00BC652AB03C000335
:100D4000650A4A2B05E36660600000867201E121B6
:100D5000102B05E3B32B05E3B02B05E36400F4BCD3
:100D6000610000FE60D04A2B05E3663CD03C000ADF
:100D7000645E66084A2B05B56B00087E7200D000E1
:100D8000D0001200301F41FA224EB07010006446AD
:100D90006100FF583F006100FF72301F222B05D811
:100DA0006A223000672E603C102B05B5122B05E33C
:100DB000D000D301177C000005B5174105E3534D62
:100DC000723060C041FA2210B0701000641660C426
:100DD00072FF301F6732B07C006467046100FF0C53
:100DE000274105D8101F1200E208174005E1375FC0
:100DF000059C275F0598176B059D059E102B059593
:100E0000B12B059EE2094E75102B05944E7561506D
:100E100065001B4C4A006B000090B03C002467004A
:100E20001B3EB03C002567001B36B03C002E67001F
:100E30001B2EB03C0022660C101D204D6100063AAE
:100E40002A4A4E75B03C002866446100FEB67029FF
:100E50006006487A0978702CB01D67066000F3BC04
:100E6000101D1015B03C002067F6B03C00A9640EC0
:100E7000B03C003A64081C3C00D0D00690064E7589
:100E80006100FE6872284FEF00046000FF0A6100F5
:100E900001E24A2B05B567000D906A0627480590C8
:100EA0004E752010600004BCB03C00B367D2B03C6B
:100EB00000B26700FF5AB03C00AE6606323C002C20
:100EC00060C4B03C00AB67000514903C00BF6500F7
:100ED000F34AC07C007FD04041FA20B0323000009D
:100EE0004870100041FA205830300000671241F07D
:100EF00000004ED06100FF544A2B05B56A00F2F0A5
:100F00004E756100FF464A2B05B56B00F2E24E7547
:100F1000177C000005B5101D4E756100FDE64A2BDB
:100F200005B56A00F2CA141DB43C002C6600F2EC50
:100F30002F2B0590610008AC205F4E756100FDC449
:100F40004A2B05B56B00F2A861000DD07200141D8C
:100F5000B43C002C660C2F00610008722200201F98
:100F6000141DB43C00296600F2B24E756116B580BE
:100F7000600003F0610E8082600003E86106C082B9
:100F8000600003E061000228240061000CF66000AC
:100F9000021E6100021A4680600003C86100FD4E17
:100FA000650661000D4A6042177C000005B56100CE
:100FB00006BC22482200206B0598610006B424007C
:100FC00066044A8167249481670C650470FF600899
:100FD00022007001600220025381B30856C9FFFC51
:100FE0006708640470FF6002700152001200700113
:100FF000E338C02B05E167000CDE70FF60000CD801
:101000006100FE5472FF61706100FE5866F24E7519
:10101000612E6708B43C00206420E5A06000034412
:10102000611E67F8B43C0020650A4A806A0C70FFB4
:1010300060000330E4A06000032A70006000032415
:101040006100078E140061000C3A610001624A02DF
:101050004E75B03C00616410B03C004164048040B7
:101060004E75B03C005B4E75B03C007B4E75610226
:101070004E7572006100FDEC174105B461D4640047
:10108000F19A720041EB046A2081174105B5B27CE8
:10109000000464061180100052416100FDC465EE39
:1010A00061B065EAB03C0024660C002B0080046B44
:1010B0006100FDAE6010B03C0026660A002B008087
:1010C000046C6100FD9C4A2B05DF670E6A14202B1F
:1010D000046A720841EB0432601C903C00286700EF
:1010E00000F4202B046A720441EB04360800001758
:1010F0006704544158482268000420506006B098A4
:101100006776D1C1B1C966F64A2B05DF660A45FA92
:10111000FF60B5D76600F0C0082B000005DF660051
:10112000F0BE246B0442240A9489204A5881D5C118
:10113000274A0442E28A67125382484248423520D5
:1011400051CAFFFC484251CAFFF44A2B05DF6B0825
:1011500008000017660A6004D3AB0436D3AB043A28
:10116000D3AB043E20C020BC0000000008000017E4
:101170006706317C000000042200D2814841E21958
:10118000E249C23C00C0174105B5177C000005DFED
:101190004E757005D02B05DBD080D0884E75610070
:1011A000FCC06100FB444A2B05956B00F0620C2BE0
:1011B00000A0059465000B646600F0544A2B059569
:1011C0006A000B58202B059044806800F0422740AD
:1011D000042A4E753F2B05B472003F012F2B046A81
:1011E00061BC48404A406600F016275F046A321F1F
:1011F000301F3F2B042C3F0052416100FC66B03C85
:10120000002C67D6174105DB6100FC44375F05B44D
:10121000206B043E274805ACB1EB0442672E20103A
:10122000B0AB046A670A20680004D1EB05AC60E447
:101230004A2B05B46600EFC46100FF5850483018CF
:10124000B02B05DB670000946000EF844A2B05B4E7
:101250006700EF806100FF3C202B046A20C072040D
:101260000800001767027206274105A8122B05DB4C
:10127000584830C1321F30C1610000AE274005A878
:10128000532B05DB66EED1EB05A86500EF7AB1EBD9
:101290000446650C6100028EB1EB04466400EF6801
:1012A000274804427000222B05A8E28953413100EF
:1012B00051C9FFFC48414A4167065341484160EE2D
:1012C000206B05AC202B04429088214000044A2B5F
:1012D00005B466525048375805DB7000274005A812
:1012E0003218B2576500EF184A806702613A7200FF
:1012F000321FD081274005A8532B05DB66E2177CFF
:10130000000005B572034A2B046B6A0A7205177C4C
:10131000008005B5600C4A2B046C6A06177C0040FF
:1013200005B56104D1C04E75202B05A824004842A4
:10133000C0C1C4C148424A426600EECCD0826500BA
:10134000EEC6D0AB05A86500EEBE4E754A2B05B5BE
:101350006A0461000318610001CC202B044690ABA5
:101360000442177C000005B5377CA0000594274097
:1013700005906A000640003C000160000638102B12
:1013800005E5C0BC000000FF60D84A2B04526B008A
:10139000EE624E7570AB6100FAC0177C008005DF0D
:1013A0006100FCDA274805B061E00C1D00286600EA
:1013B000EE6A177C007E05DF6100FCB46100FA90E4
:1013C00070BD6100FA942F2B046A2F0D6100F41296
:1013D000206B05B0209F215F00044E75177C0081B3
:1013E00005DF6100FA7C6100FC941F2B05B52F0816
:1013F0000C1500286600EE246100FA50205F274893
:1014000005B01F2B05B5202800046100FCDA101F71
:10141000E3186100F8D8671243EB0476B9C9670096
:10142000EDC639280004291060022F102F081F2B49
:1014300005B561322F0D206B05B02A506100F8C24E
:101440006100FA206600EDD42A5F101F205F4A0079
:101450006A08209C315C00046002209F101FE31882
:101460006100F88A4E754A2B05B56A0007F02448DA
:101470006000F51261000950742236027200534177
:1014800024485241103010006710B0026704B003C6
:1014900066F0B03C00226602524AD5C1B1CB651E4F
:1014A000B1EB042E64182248200166042041600E2E
:1014B0006126D1C1D3C15340112151C8FFFC43EB78
:1014C0000476B9C96700ED2039012908274C059039
:1014D000177C008005B54E754A41672E2F007000BD
:1014E000174005DE7001C041D041640470014840DE
:1014F000206B044691C0B1EB0442651227480446B4
:101500002748044E201F4A414E7530414E754A2BE4
:1015100005DE6B00ECF22F09610A225F177C008068
:1015200005DE60CC48E7E0E0276B044A0446222B46
:10153000044270002240206B043A41E80004246B0E
:10154000043E60086100008441E8000AB1CA65F405
:1015500041E8FFFC246B0442602424280004D48862
:10156000201008000017671430280008D040D0C0B1
:1015700041E8000A61545C48B1C266F82042B5C82F
:1015800066D8204C45EB048E6006613E41E80006BB
:10159000B5C866F62009672C205172003229000474
:1015A0005281C23C00FED1C1246B0446B1CA670C13
:1015B000E2895341352051C9FFFC228A2751044654
:1015C0006000FF6C4CDF07074E7520106728B28063
:1015D0006424B0AB0446641E70FF3028000444400D
:1015E000C03C00FED0AB0446B090670622102248F3
:1015F0004E75274004464E75487AF7382F2B0590D4
:101600006100F80C4A2B05B56A00EBE4205F226B01
:10161000059032280004D26900046500EBCE2F0843
:101620006100FEB627480598205730280004205056
:101630006120206B059061386118205F6132206B5A
:10164000059822086700FE784481D2AB044E600002
:10165000FE6E32006714226B044E2F09534012D8DD
:1016600051C8FFFC2749044E205F4E75206B059042
:1016700048E74040B9C866025C4C700022583018F8
:10168000B9C86610B3EB0446660A7201C240D28044
:10169000D3AB044620494CDF02024A804E756100FC
:1016A000013072016100FE3210806000FE12C14103
:1016B0006100F79C4A8167227000B2680004651AD5
:1016C0006014C1416100F7884A81670E3028000428
:1016D0009081640670003228000422486100FDFAFF
:1016E00020492F00618AD1DF30016100FF66600070
:1016F000FDCE7E0053472F006100F768B03C002C00
:10170000660C101D2F08610000DA205F2E006100BA
:10171000F73E201F720053806B00EAF4B0680004AB
:1017200064B82207DE406506BE68000465AC322856
:101730000004924060A46100FF34220067562248F2
:101740006100FD96D1C1D3C1340153421021B03C98
:10175000005B640AB03C00416504000000201100F9
:1017600051CAFFEA602E6100FF042200672622486A
:101770006100FD66D1C1D3C1340153421021B03C98
:101780000061650AB03C007B6404020000DF1100C8
:1017900051CAFFEA6000FD28101D6100F8D6610003
:1017A000F6AE4A2B05B56A00EA4620106000FBB48D
:1017B000487AFBB06000FEB66100FEB24A406700A6
:1017C000EA4E10106000FBBC6100F6966100F51A4D
:1017D0006100F9D4123C0080D281C2806600EA30F8
:1017E0004E756100F5046100F9BE48404A4066004C
:1017F000EA1E48404E756100FE7467222C4D2A484F
:10180000D1C010103F002F0810BC00006100F6543A
:101810006100114C205F301F10802A4E4E753740FA
:1018200005944E756100F4C26100F9842F006100D7
:10183000F6266198205F4E75611E6100F61A610000
:10184000F4A86100F96A48404A40670652406600C1
:10185000E9BE4840205F4E756100F48E6100F9508A
:10186000080000006600E96420572E804ED0610019
:10187000F93E204010106000FB0A61A810804E75F0
:101880006100F92CE2086500E942D000C1887000CF
:1018900030106000FACE6100F916E2086500E92C0C
:1018A000D000C18820106000FABA618C30804E757B
:1018B00061A66100F5A26100F4306100F8F2205FDA
:1018C00020804E756100F7AC2F08182B05B561001C
:1018D000F5866100F79E245FB82B05B56600E91018
:1018E000201020D224C04A046AD8301030923480AC
:1018F0004E754EAB04066000F5564EEB04184EEBE9
:10190000041E487AF55E6100FF504E756100FF16B7
:101910002F083F0074006100F54A67066100F53446
:101920002400321F205F1010B500C00167F84E750B
:101930000A2B00800595176B059D059E102B0595BC
:10194000B12B059E102B05946700033841EB0598D9
:10195000102B059C6746902B05946722650A376B10
:10196000059C05944400514844002F01B03C0020E0
:101970006D04720060042210E0A92081221F4A2B0E
:10198000059E6B1A202B0598D0AB0590640AE29057
:10199000522B05946500E874274005904E7543EB83
:1019A0000590B3C8660250492011221027400590C7
:1019B00093AB0590640A0A2B00FF059544AB059094
:1019C000202B05906B2E6606374005944E752F012F
:1019D00022007000102B05946714D2815BC8FFFCB5
:1019E0004A40670A6A027001530027410590221F8E
:1019F000174005944E754A2B05956B00E8127E0042
:101A00001747059E1E2B05946700E8049EBC000046
:101A10000081177C008105942C2B0590277C800089
:101A200000000598377C8100059C6100FF1870005C
:101A30003740059CDC86274605986758377C800030
:101A4000059C610001304A2B05946748122B0594D0
:101A5000923C00824401202B0590E2A87C00223CAD
:101A60004000000041FA14087A1E78016006E8A2DE
:101A70009282DC9024002601E8A3640252839083C2
:101A80006AEC200258485284E28B670451CDFFF083
:101A9000DC86200628007A004A8767166A04448795
:101AA0007A80174505954847E18F7A885385DE8708
:101AB0006AFA2747059017450594277CB17217F8F5
:101AC0000598377C8000059C176B0595059E61186D
:101AD000274405986710377C8200059C176B059595
:101AE000059E6100FE604E7548E7F8004A2B05949C
:101AF0006776102B059C6770176B059E0595D02B9C
:101B00000594640A903C00806400E7006006903C05
:101B10000080655417400594222B0590242B0598CE
:101B20003801200148403600C2C2C0C24842C8C283
:101B3000C6C2D2BC0000800042414841D280D2845B
:101B40006406D6BC00010000D2BC00008000424107
:101B50004841D2836B08D281532B0594670A2741F1
:101B600005904CDF001F4E757000274005903740F0
:101B7000059460EE2F0770002400142B0594670075
:101B8000E676102B059C67669042D07C0080176B30
:101B9000059E0595422B059F262B0590282B059821
:101BA000B883674465069883562B059F6146484174
:101BB0002802614284C51E2B059F6708E20FE2914F
:101BC000E2525200D442640852816404E2915240CD
:101BD00036006B1A0243FF006600E6302E1F1740E6
:101BE0000594274105904E757201E2A960DE7000F0
:101BF000220060E824042A034245484588C568025B
:101C000078FF3C043204CCC3C8C53E064246484671
:101C1000D8867C009C4795846A085341DC43D5856F
:101C20006BF8484234064E75201048403740059402
:101C30006708807C00804840E18027400590102B99
:101C400005944E752F08206B0472082B000605B50D
:101C5000670C610000C62080205F4E752F08610070
:101C6000FD60612C202B0590E0984840C07C007FEF
:101C7000022B00800595806B059448402080205FF2
:101C80004E75376B059C0594276B059805904E752E
:101C9000102B05946720202B0590D0BC00000080FD
:101CA000640AE290522B05946500E560C03C000098
:101CB000274005904E75174005954E757000102B06
:101CC000059467F6102B0595488048C0E08065EACA
:101CD00070014E7561E627400590377CA0000594A1
:101CE000D0806000FCD0177C000005954E75122B4B
:101CF000059C67C8102B059E6BCA102B0595B22B4F
:101D00000594660A222B0598B2AB0590670865B862
:101D10000A00008060B270004E75202B059067327B
:101D20002F01123C00A0922B05946500E4DE660EA4
:101D30004A2B05956A1A448069166000E4CEB23CCD
:101D4000002065027000E2A84A2B05956A024480D3
:101D5000221F2740042A4E75103C00A0902B0594AA
:101D60006310B03C00206400026272FFE1A1C3ABCB
:101D700005904E7541FA18006100ED1C202B0452AD
:101D800043FA0DEE720041EB05CC24012631100020
:101D90006714782F524490836AFAD083118420000C
:101DA0005841524260E6D03C003011802000534838
:101DB000524843EB05D5B1C96700ECDC0C1000308C
:101DC00067EE6000ECD243EB05C6742008AB000759
:101DD00005956702742D1282142B059466087030E5
:101DE0007201600001A8177C000005ACB43C0081C2
:101DF0006448277C989680000598377C9800059C5D
:101E0000176B0595059E6100FCE0177C00F905AC99
:101E10006028376B0594059C276B05900598176B18
:101E20000595059E277CCCCCCCCD0590377C7D00DC
:101E300005946100FCB4522B05AC277C98967F700A
:101E40000598377C9800059C6100015062C467507A
:101E5000277CF423F8000598377C9400059C41EB1F
:101E60000590610001366220201012280004240031
:101E7000E488D0826404E29052015601208011412E
:101E80000004532B05AC60DA277C80000000059825
:101E9000377C8000059C176B0595059E6100FAA6AE
:101EA0006100FE787401102B05ACD03C00086B0C6F
:101EB000B03C000964065300140070027200550023
:101EC000174005AD174205AC100267026A14528133
:101ED00013BC002E10004A026708528113BC003068
:101EE00010007400708041FA112226302000520048
:101EF000D7AB042A08000007650467F2600266EEAB
:101F000064064400D03C000BD03C002F58425241A4
:101F10001600C63C007F13831000042B000105ACA3
:101F20006608528113BC002E1000C03C00800A00DD
:101F30000080B43C001C66AE103110005381B03CF0
:101F4000003067F4B03C002E6702528113BC002BB6
:101F500010024A2B05AD67386A0A13BC002D100227
:101F6000442B05AD13BC00451001142B05AD702F9B
:101F70005200943C000A64F8D43C003A13801003E9
:101F80001382100413BC00001005600A13801000B7
:101F900013BC0000100120494E757000122B059CE7
:101FA000B22B0594660A222B0598B2AB0590670800
:101FB000650453804E7552804E75277C800000006A
:101FC0000590377C810005944E7570002740059080
:101FD000374005944E754A2B059467DE4A2B059CC5
:101FE00067E81F2B059D6A2072001741059D122B83
:101FF0000594927C00806300E216202B0590E3A0FC
:102000006600E20C65021E802F2B05903F2B059485
:102010006100FC706100F9E0301F275F05983740D0
:10202000059C1740059E102B0595B12B059E610060
:10203000FAB86158175F05954E754A2B05946706E7
:102040000A2B008005954E75277C800000000590C6
:10205000377C810005944E754A2B05956A00E1ACEA
:10206000700027400590374005944E75277C80000E
:1020700000000590177C000005954A2B05B46A0204
:102080004481D23C0081174105944E75102B059474
:1020900067B6B03C006465B0177C000005B4222B25
:1020A0000590B03C008762B06608B2BCB00F33C781
:1020B00064A64A2B05956A0C177C00FF05B4177CB3
:1020C00000000595277CB8AA3B290598377C81003C
:1020D000059C177C0000059E6100FA0E177C00002D
:1020E00005D91A2B05949A3C00806324202B059077
:1020F00022002C054446DC7C0020ECA9174105D9C0
:10210000EBA86700FF6827400590377C80000594A6
:10211000277CB17217F80598377C8000059C177CE6
:102120000000059E6100F9C2202B05901A2B059432
:102130009A7C00824445EAA872002C3C26A3D11068
:1021400041FA0D2C78007A036136594853847A0994
:10215000612E594853847A1261264A2B05B46A06C7
:102160004481442B05D97083DC816B065380DC8667
:102170006AFA27460590D02B05D9174005944E756D
:1021800052842406E8A22601E8A34A806B0CD2827E
:10219000DC83909851CDFFEA4E7592829C83D09853
:1021A00051CDFFDE4E754A2B0594670841EB05A023
:1021B0006100FAAA72AF7412202B05A0D0806402CD
:1021C000B30051CAFFF8274005A027400590377C8F
:1021D000800005946000F7EA6138376B0594059C30
:1021E000276B0590059827410590174305946700D4
:1021F000E01A6100F7CC6000F97C277CC90FDAA3F4
:102200000598377C8100059C176B0595059E61003C
:10221000F734177C000005B4277CA2F9836F05987A
:10222000377C7F00059C176B0595059E6100F8BA09
:10223000102B0594671C41FA0B362C2B059053008C
:102240006710903C00806B18B03C00206404E1AE45
:10225000661874817600203C8000000022036062D2
:102260004400B03C001E64EAE0AE176B0595059E85
:10227000DC8664060A2B00FF0595DC86640C0A2BBD
:1022800000FF05B40A2B00FF059EE48E67C47A01A7
:102290002028FFFC22009C9860089C989083D282A2
:1022A00060122400EAA22601EAA34A866AECDC98BE
:1022B000D08392825285BABC0000001E66E474810D
:1022C00026024A2B05B46B04C141C5432740059043
:1022D000174205946000F6EA102B0594670000ACE5
:1022E000177C000005B4B03C008165286608202BEF
:1022F0000590D080671E277C800000000598377C01
:102300008100059C176B0595059E6100F868177C98
:1023100000FF05B4202B0590123C0082922B0594FF
:10232000E2A841FA0ACA7C00223C400000007A1D63
:1023300078016006E8A2D282DC9024002601E8A39E
:1023400090836AF0200258485284E28351CDFFF214
:10235000177C00820594274605906100F6644A2B9D
:1023600005B46A261E2B0595177C00000595277C71
:10237000C90FDAA20598377C8180059C177C00FF85
:10238000059E6100F5C0174705954E756100F496EE
:10239000B03C00086400DE7801D04E756100F48620
:1023A000B03C00086400DE6801904E75101D6100AD
:1023B000F474B03C00086400DE5622006100EAA418
:1023C000B03C00296600DE546100EA9670000310FC
:1023D0006700F90470FF6000F8FE4A2B05B56A003B
:1023E000DDE6246B05903E2A00046700DDDA70000C
:1023F0003F003F003F003F002F0A72002041610074
:10240000F0BE101DB03C002C6600DE106100028E94
:102410004A026700DDB26100E8E84A2B05B56B00AF
:10242000DDCE4A2B05946732322F000AB27C0008B9
:1024300064283001D241D240D24141FA0844277089
:102440001002059830301000907C01003740059C48
:10245000177C0000059E6100F4EC6100F96A6100E0
:1024600001FE45EB05C67C00782E3406524610323C
:102470006000677AB03C00456706B00466EE60EA2B
:1024800036065343524610326000B03C002D6600C1
:10249000DD7E524610326000B03C00306704700AA6
:1024A00060085246700FC032600034030C420001D5
:1024B00066025242D440700A90426E0CD440D6401C
:1024C0000C4300016E0276003C0270001580200073
:1024D00053420C420001671270304A4367EE1032DB
:1024E00030005343B00466E460F4158420004A428F
:1024F0006602340636025243382F00085244B24472
:10250000632210304000B03C00256706B03C002339
:1025100066EA7030BC4363061032300052431180CB
:10252000400060D87C007A0053426608740115BCF4
:1025300000302000382F0008B244640238015344B0
:102540006B62103040007E30B03C002567087E2072
:10255000B03C002366064A4266346042B03C002C20
:1025600066104A4266080C30002540FF66301E00A7
:10257000602CB03C002D6710B03C002B66C00C12E4
:10258000002D670414BC002B1A004A4267081E3253
:102590002000534260084A0666041E121C07118779
:1025A0004000609A4A4266144A0567544A066650DB
:1025B0000C05002B67060C12002D66447A233E01A1
:1025C00053473C2F000453466E023C071031600015
:1025D0000C000023671E0C00002567180C00002C5F
:1025E00067120C00002B670C0C00002D67060C0016
:1025F000002E6602100511807000534651CFFFCEA9
:1026000041EC0006274C05906100F004302F0004D7
:1026100067203F400006610000844A026614613E64
:102620003F6F0004000641EC0006274C0590610056
:10263000EFDE101DB03C00296600FDCA204C222BA5
:1026400004466100F02C2741044622483200205FF6
:102650006100F01E4FEF000820496000EE62226F1B
:1026600000043E290004342F000A3C2F00083206E3
:1026700092426202D2476100EE606100EE42226F38
:1026800000042251780011B120004000524452420F
:10269000BE4266027400BC4266EC4E75226F0004B6
:1026A0003E29000422513C2F000A3F47000C7A00CB
:1026B0007600740010316000B03C002C6742B03CE2
:1026C00000236706B03C002566084A856A1052431D
:1026D000602EB03C002B6706B03C002D66048400E1
:1026E000601EB03C002E66144A856B143006906F55
:1026F000000A3F40000C7AFF840060044A0266082A
:102700005246BE4662AE7C003F4600083F43000E84
:102710004E75B23C00216400DAF6741F41EB05B639
:1027200078307600E288D7041183200051CAFFF484
:10273000177C000005D64A01670E4481D2BC000018
:1027400005D641F31000600E1010670AB03C00304F
:10275000660E524860F243EB05D6B1C96602534893
:102760006000ED16B23C00096400DAA4740741EB86
:1027700005CE78301600E898C63C000F1A03DA3C04
:1027800000F6C7041183200051CAFFEA60A24A2B59
:1027900005E8661E4EAB040C640E174005E9177C75
:1027A000002005EA6000DEDE4A2B05EA6704532BB1
:1027B00005EA4E754EAB040C650A102B05EA67F26C
:1027C000102B05E9177C000005EA003C00014E755E
:1027D0006100E5304A2B05B56B00DA14612E64FC0C
:1027E0006100F4A060F66100E51A4A2B05B56B00A4
:1027F000D9FE611863FC6100F48A60F6B03C0029E0
:102800006600DA184FEF00046000E6566100E654F7
:10281000B03C002C66E63F2B05942F2B0590610001
:10282000E4E24A2B05B56B00D9C6275F0598301F37
:102830003740059C176B0595059EB12B059E6000E2
:10284000F4AEB03C002C672C6100EF824A006712A6
:10285000B03C00106500D9B8B02B05E26404174005
:1028600005E2174005E66100E5FA672CB03C002C54
:102870006600D9A86100EF524A006B00D992B03CC3
:1028800000016500D98A122B05E66708B02B05E622
:102890006E00D97C174005E2102B05E6670AB02BC5
:1028A00005E26404174005E2902B05E264FAD02BA0
:1028B00005E2D02B05E24400D02B05E6174005E7E2
:1028C0004E754A2B05956B00D9464A2B059467F047
:1028D00048E77800202B059074002202761F082B11
:1028E000000005946606D080D582D281D080D58242
:1028F0002801D8845284B48465049484528151CBD5
:10290000FFE627410590102B0594907C0080E2485B
:1029100064025240D07C0080174005944CDF001EBA
:102920006000F09E101D6100E74A6100E52220086A
:102930006000EA3041F8040020086000EA26277CA5
:10294000C90FDAA20590377C820005944E75277C6A
:10295000C90FDAA20590377C830005944E7548E7CD
:102960007C0072002601280117410595174105B525
:10297000174105AF6100E4EC653CB03C002D6608F2
:10298000177C00FF05956006B03C002B66066100D1
:10299000E4D06522B03C002E67000092B03C0024D9
:1029A0006700010AB03C0025670001646000008CEC
:1029B0006100E4AE646C610001A864F452836100BC
:1029C000E4A065F8B03C002E66066100E49465FA68
:1029D000B03C004566646100E4886528B03C002D89
:1029E0006706B03C00B36608177C00FF05AF600EB9
:1029F000B03C002B6708B03C00B26600D81E6100F6
:102A0000E4606436C8FC000AC0BC000000FF903CD3
:102A10000030D880B83C00306FE46100E44465FACF
:102A20006018B03C002E670460A653836100E43256
:102A3000649E6100012C64F260904A2B05AF6A022B
:102A40004484D88376204A8167526B085383D281AD
:102A50005BCBFFFCB8BC000000266E00D7AEB8BC54
:102A6000FFFFFFDA6D344484C9FC00062F0841FAE9
:102A7000021017704000059C277040020598205FE7
:102A80000A0300802741059017430594176B0595AD
:102A9000059E4CDF003E6000F05072002601174397
:102AA0000594274105904CDF003E4E75177C004091
:102AB00005B576206100E3AA6514803C0020903CB7
:102AC0000061652AB03C00066424D03C003A616C89
:102AD00064E258836900D7346100E38665F4803C82
:102AE0000020903C00616506B03C000665E44A8128
:102AF00067AA6B085383D2815BCBFFFC0A0300807B
:102B000017430594274105904CDF003E4E75177C16
:102B1000004005B576206100E34864D2B03C003245
:102B200064CC2401612464EE52836900D6DE610026
:102B3000E33064BAB03C003265EE60B22401D48266
:102B400065CAD48265C6D48265C2D48265BEC0BC63
:102B5000000000FF903C0030D48065B022024E752A
:102B60002401D4826508D4826504D48164DC4E7566
:102B70003B9ACA0005F5E10000989680000F42409C
:102B8000000186A000002710000003E80000006498
:102B90000000000A00000000332E3232FF0096765B
:102BA0009951FB00F0BDC21BF800C097CE7CF50028
:102BB0009A130B96F100F684DF57EE00C537191211
:102BC000EB009DC5ADA8E700FC6F7C40E400C9F2B6
:102BD000C9CDE100A18F07D7DE00813F3979DA0046
:102BE000CECB8F28D700A56FA5BAD40084595161E8
:102BF000D000D3C21BCFCD00A968163FCA0087867C
:102C00007832C600D8D726B7C300AD78EBC6C0006F
:102C10008AC72305BC00DE0B6B3AB900B1A2BC2FFA
:102C2000B6008E1BC9BFB200E35FA932AF00B5E6A4
:102C300020F5AC009184E72AA800E8D4A510A500EF
:102C4000BA43B740A2009502F9009E00EE6B28003F
:102C50009B00BEBC20009800989680009400F4244D
:102C600000009100C35000008E009C4000008A00CC
:102C7000FA0000008700C80000008400A0000000E7
:102C80008100800000007D00CCCCCCCD7A00A3D7A1
:102C90000A3D770083126E987300D1B71759700000
:102CA000A7C5AC476D008637BD066900D6BF94D670
:102CB0006600ABCC7712630089705F415F00DBE692
:102CC000FECF5C00AFEBFF0C59008CBCCC0955006B
:102CD000E12E13425200B424DC354F00901D7CF7E6
:102CE0004B00E69594BF4800B877AA32450093920E
:102CF000EE8F4100EC1E4A7E3E00BCE508653B00BD
:102D0000971DA0503700F1C900813400C16D9A01B0
:102D100031009ABE14CD2D00F79687AE2A00C61258
:102D2000062527009E74D1B82300FD87B5F3200047
:102D3000CAD2F7F51D00A2425FF71A0081CEB32C6C
:102D40001600CFB11EAD1300A6274BBE100084ECB9
:102D50003C980C00D4AD2DC00900AA24249906008B
:102D6000881CEA140200D9C7DCED4DBA76D42000E5
:102D7000000012E4051E09FB385C051111D5028B19
:102D80000D440145D7E200A2F61F00517C560028F1
:102D9000BE5400145F2F000A2F99000517CD0002C2
:102DA0008BE7000145F40000A2FA0000517D00000D
:102DB00028BF0000146000000A3000000518000061
:102DC000028C00000146000000A300000052000039
:102DD0000029000000150000000B000000060000A4
:102DE00000030000000200000001000000011DAC13
:102DF00067050FADBAFD07F56EA703FEAB7701FFC0
:102E0000D55C00FFFAAB007FFF55003FFFEB001FD2
:102E1000FFFD001000000008000000040000000298
:102E200000000001000000008000000040000000E1
:102E30002000000010000000080000000400000056
:102E400002000000010000000080000000400000BF
:102E50000020000000100000000800000004000036
:102E60000002000000010000000000000000232715
:102E7000D4F41058AEFA080AC48E04015622020097
:102E80002AB001000554008000AA00400014002070
:102E90000002001000000008000000040000000212
:102EA0000000000100000000800000004000000061
:102EB00020000000100000000800000004000000D6
:102EC000020000000100000000800000004000003F
:102ED00000200000001000000008000000040000B6
:102EE0000002000000010000000000000000D79E6A
:102EF000D6D2DD44D8F2DC38E116DC5EDA6ADA06D6
:102F0000D85AD822D91AD7CCD848D8DED98CD7A647
:102F1000D994D7FADA0CEA1EEA0CEA10E4A6E98C96
:102F2000E9BCE9C2EA14D836D888DAFED804D61C3F
:102F3000D618D5C6F954DAC4E9D6F49EF4AEDFC487
:102F4000DFC4DFC4DDC4DF0CDF0CDFC4DFC4DFC4DB
:102F5000DFC4DFC4DFC4DFC4DFC4DFC4DFC4DFC459
:102F6000DFB6DFC4DFB6DFB6DFB6DFB6DFC4DFFE55
:102F7000DFFE000000000000DFD2DFD2DFD2000061
:102F80000000DFDCDFDCDFDCDDC4ED4AEDCEED5C34
:102F9000E968E3C2E3F4F938F21CEA6CF102F2707A
:102FA000F288F24EF34EE8E4E8F6E90CE826E4EAAB
:102FB000E86CE82EE7DCE7ACE714F7DAF788F422F0
:102FC000F846F85CF9AAF9B4F9C4F99AE80EE724CE
:102FD000E738E768F4500079E96E0079E95A007B38
:102FE000EB12007BEB9E007FF0000050DFA6004656
:102FF000DF960046DF9E0056E04A0056E03A007D2C
:10300000F064005ADFBC0064DFC6FFF0BDC0000101
:1030100086A0FFFFD8F0000003E8FFFFFF9C000040
:10302000000AFFFFFFFF00000002FFFF0004FFFF98
:103030000006FFFFFFFFFFFFFFFFFFFFFFFFFFFF98
:10304000FFFFFFFFFFFFFFFFFFFF0008000C000E68
:103050000012FFFF00140024003D0054006D007CAE
:10306000008600930099FFFFFFFF00A800D600E450
:1030700000F300F8FFFF010D013701620176018EB8
:10308000019AFFFFFFFFFFFFFFFFFFFFFFFF01A907
:10309000450100714601007C4E0200E744020054E5
:1030A0004903009E44010063520201144C0100BE1A
:1030B0004401005847020089520101334900009938
:1030C0005205011B4703008D5204012252010118D1
:1030D000530201544F0000F34E0200EE4901009BE1
:1030E0005702019A4C0200C55302013C44010060A2
:1030F000500200FF440200664C0200CD4302003D36
:103100004400006A4C0200D1500301074302004B07
:103110004C0200C1430300464E0100E4570301A3E3
:10312000470100865302015D4204002F420400293A
:10313000540201624502006D5400016E4600007F9A
:10314000530201485402016A4E0100EB5302015040
:103150005503017D5703019E2BFF00022DFF000444
:103160002AFF00002FFF00065EFF01A941010018A1
:10317000450100744F0000F53E00000E3C000008C1
:103180003EFF00103DFF000C3CFF000A53020140CF
:10319000490200A341020014550201894602008140
:1031A000500201035302014C5202012F4C0200C98C
:1031B000450200774302004F530201445402016666
:1031C0004102001F500300F84403005B4C0300AFB2
:1031D0004C0200BA530301585602018E4102001BF3
:1031E000550501764C0500A84303004148030093B0
:1031F00042030024420500354D0200D64D0200DF97
:103200005205010D500000FD540301705605019256
:10321000530301374C0400B4520501284D0300DA72
:1032200055050182003000410048005D00690077CB
:103230000080008E00A200AF00C000CF00DE00ECD6
:1032400000FC010F011E01310141015401680179A7
:10325000018101884E45585420776974686F7574F0
:1032600020464F520053796E746178005245545590
:10327000524E20776974686F757420474F535542DA
:10328000004F7574206F6620444154410046756EAE
:103290006374696F6E2063616C6C004F7665726653
:1032A0006C6F77004F7574206F66206D656D6F725F
:1032B0007900556E646566696E6564207374617427
:1032C000656D656E7400417272617920626F756E12
:1032D000647300446F75626C652064696D656E731C
:1032E000696F6E00446976696465206279207A6549
:1032F000726F00496C6C6567616C2064697265630C
:10330000740054797065206D69736D617463680031
:10331000537472696E6720746F6F206C6F6E6700F4
:10332000537472696E6720746F6F20636F6D706C79
:1033300065780043616E277420636F6E74696E75E3
:103340006500556E646566696E65642066756E63BA
:1033500074696F6E004C4F4F5020776974686F75B9
:103360007420444F00556E646566696E656420760E
:1033700061726961626C6500556E64696D656E733A
:10338000696F6E65642061727261790057726F6E49
:10339000672064696D656E73696F6E730041646464
:1033A0007265737300466F726D6174004E6F7420A6
:1033B000696D706C656D656E74656400B400B20013
:1033C000B300B5003CBBBE00BD003EBABC009E00D1
:1033D000425328C14E44B7534328D3544E28CC00FF
:1033E000494E2428D84954434C52A7495453455474
:1033F000A6495454535428D900414C4C9B4852245C
:1034000028D64C454152A14F4E549F4F5328C900D6
:103410004154418345438845454B28CE454697490D
:103420004D854F4B45994F9C004C5345A94E4480C8
:103430004F52B8585028C8004F52814EAB524528C1
:10344000C3004554A44F544F894F5355428D0045F6
:10345000582428D700468B4E43934E505554844EE3
:103460005428C000434153452428D545454B28CF17
:103470004546542428E1454E28D0455487495354A5
:10348000A04F4144954F4728C74F4B459A4F4F5047
:103490009D00415828DA49442428E3494E28DB009E
:1034A0004557A2455854824F54AE554C4C92004E4D
:1034B0009152B90045454B28CD49DD4F4B45984FBA
:1034C0005328C452494E549E00414D42415345DC5D
:1034D00045414486454D8F4553544F52458C455484
:1034E00055524E8E494748542428E24E4428C6552A
:1034F0004E8A0041444428E041564596474E28BF35
:10350000494E28CA504328AC515228C5544550AFA3
:10351000544F509054522428D1574150A500414255
:1035200028A8414E28CB48454EAD4FAA574F504989
:10353000DE00434153452428D44E54494CB05349EE
:103540004E472428E4535228C200414C28D241520D
:1035500050545228DF004149549448494C45B149E0
:10356000445448A300B6000D0A427265616B002006
:103570004572726F720020696E206C696E65200062
:1035800045787472612069676E6F7265640D0A0018
:103590005265646F2066726F6D2073746172740D72
:1035A0000A000D0A52656164790D0A00204279749F
:1035B000657320667265650D0A0A456E68616E6303
:1035C00065642036386B204241534943205665726A
:1035D00073696F6E20332E35340D0A000000000031
:1035E00000000000000000000000000000000000DB
:1035F00000000000000000000000000000000000CB
:1036000000000000000000000000000000000000BA
:1036100000000000000000000000000000000000AA
:1040000095EFB0F0000E816F57C584F558C585F562
:1040100059C586F55AC587F587AF14D0010E816F53
:1040200084C501F585C502F586C503F587C504F588
:104030007EECB0F001C584F502C585F503C586F5B3
:1040400004C587F5000E836F000E826FBCC571F545
:10405000BDC572F58151D8B40DD08151D8A404D01A
:10406000000E676F2B0E03D0000E676F2D0E666F6C
:1040700066C581F584C501F585C502F586C503F5DC
:1040800087C504F518ECAEF001040210D8A42CD0BA
:1040900005018151D8B409D081C500F67107D8A0B7
:1040A0007207000E836F010E826F000E8225016E73
:1040B000060E8321026EF70E036EFF0E046E2CECCB
:1040C000B0F0FD0E7127FF0E722355C512F556C5CF
:1040D00013F5000E146E060E156E71C516F572C539
:1040E00017F520ECAFF0120084C501F585C502F587
:1040F00086C503F587C504F518ECAEF00150021033
:10410000D8A42CD005018151D8B409D081C500F6BE
:104110007107D8A07207000E836F010E826F000E28
:104120008225016E060E8321026EFB0E036EFF0ECA
:10413000046E2CECB0F0FD0E7127FF0E722355C5F6
:1041400012F556C513F5000E146E060E156E71C5E8
:1041500016F572C517F520ECAFF01200000E050140
:10416000886F000E896F800E8A6F3F0E8B6F000E76
:10417000706F000E6F6F84C501F585C502F586C5A9
:1041800003F587C504F5000E056E000E066E000EE1
:10419000076E000E086EDBECAEF0D8A00CD0BED0DF
:1041A00073C588F574C589F575C58AF576C58BF52F
:1041B00005016F4B702B88C50FF589C510F58AC5B1
:1041C00011F58BC512F5000E136E000E146E200E45
:1041D000156E410E166E02ECA6F00FC573F510C5F4
:1041E00074F511C575F512C576F505017351845D39
:1041F000016E74518559026E75518659036E765160
:104200008759046E96ECAFF004BECAD70450031071
:10421000021004E1020E015CD8A0C2D773C528F5D4
:1042200074C529F575C52AF576C52BF584C52CF519
:1042300085C52DF586C52EF587C52FF5B0ECADF0FB
:10424000D8A0AED705018851845D016E895185598A
:10425000026E8A518659036E8B518759046E96EC13
:10426000AFF004BE08D004500310021043E1020E68
:10427000015CD8B03FD088C584F589C585F58AC56D
:1042800086F58BC587F54AD088C528F589C529F5F7
:104290008AC52AF58BC52BF5000E2C6E000E2D6EEF
:1042A000200E2E6E410E2F6E68ECAAF028C588F500
:1042B00029C589F52AC58AF52BC58BF505016F0738
:1042C000D8A070078851845D016E89518559026EAE
:1042D0008A518659036E8B518759046E96ECAFF064
:1042E00004BEC9D704500310021004E1020E015CA1
:1042F000D8A0C1D784C528F585C529F586C52AF576
:1043000087C52BF588C52CF589C52DF58AC52EF5F1
:104310008BC52FF5B0ECADF0D8A0B6D75BC569F56D
:1043200069C56AF50501BFBF05D0BEC562F5BFC549
:1043300063F504D0000E636F060E626F62C56DF503
:1043400063C56EF56D4B6E2B660E6A19D8A416D038
:1043500070AF0CD0000E886F000E896F800E8A6FD0
:104360003F0E8B6F000E706F000E6F6F670E691936
:10437000D8B404D06F516D2770516E23000E786F42
:10438000000E776F84C579F585C57AF586C57BF50E
:1043900087C57CF588C573F589C574F58AC575F53B
:1043A0008BC576F57BD079C528F57AC529F57BC50F
:1043B0002AF57CC52BF588C52CF589C52DF58AC550
:1043C0002EF58BC52FF568ECAAF028C541F529C557
:1043D00042F52AC543F52BC544F5ACECABF041C51D
:1043E0007DF542C57EF543C57FF544C580F57DC5A5
:1043F00001F57EC502F57FC503F580C504F57EECA9
:10440000AEF001C56BF502C56CF579C528F57AC526
:1044100029F57BC52AF57CC52BF57DC513F57EC531
:1044200014F57FC515F580C516F588C50FF589C546
:1044300010F58AC511F58BC512F502ECA6F00FC573
:104440002CF510C52DF511C52EF512C52FF5E7EC8D
:10445000AFF028C579F529C57AF52AC57BF52BC5B6
:104460007CF588C528F589C529F58AC52AF58BC547
:104470002BF5000E2C6E000E2D6E200E2E6E410EB2
:104480002F6E68ECAAF028C588F529C589F52AC5DC
:104490008AF52BC58BF50501774B782B6D51775D30
:1044A0007851800A5C6E6E51800A5C58D8A07BD728
:1044B00088C50FF589C510F58AC511F58BC512F5AC
:1044C000000E136E000E146EA00E156E400E166ECA
:1044D00002ECA6F00FC57DF510C57EF511C57FF580
:1044E00012C580F579C528F57AC529F57BC52AF569
:1044F0007CC52BF57DC52CF57EC52DF57FC52EF52C
:1045000080C52FF5B0ECADF0D8B003D0000E05019A
:1045100018D079C501F57AC502F57BC503F57CC5D0
:1045200004F57DC505F57EC506F57FC507F580C593
:1045300008F5DBECAEF0D8A00BD005016BB108D0CC
:10454000000E7D6F000E7E6F000E7F6F000E806F7D
:1045500084C501F585C502F586C503F587C504F553
:104560007DC505F57EC506F57FC507F580C508F54F
:1045700098ECA7F001C579F502C57AF503C57BF57E
:1045800004C57CF579C528F57AC529F57BC52AF5DA
:104590007CC52BF5000E136E000E146E200E156EEA
:1045A000410E166E73C50FF574C510F575C511F57E
:1045B00076C512F502ECA6F00FC52CF510C52DF549
:1045C00011C52EF512C52FF5B0ECADF0D8A024D052
:1045D00005016F4B702B73C50FF574C510F575C5CC
:1045E00011F576C512F5000E136E000E146E200E36
:1045F000156E410E166E02ECA6F00FC573F510C5D0
:1046000074F511C575F512C576F5660E05016A19C2
:10461000D8A402D06D4B6E2B73C588F574C589F58F
:1046200075C58AF576C58BF56FC560F570C561F502
:10463000000E0501686F000E656F000E646F000EBE
:10464000786F000E776FCDD079C528F57AC529F53A
:104650007BC52AF57CC52BF588C52CF589C52DF5BC
:104660008AC52EF58BC52FF568ECAAF028C541F553
:1046700029C542F52AC543F52BC544F5ACECABF092
:1046800041C57DF542C57EF543C57FF544C580F53E
:104690007DC501F57EC502F57FC503F580C504F52E
:1046A0007EECAEF002BE06D0025013E10A0E015CB1
:1046B000D8B00FD07DC501F57EC502F57FC503F5E5
:1046C00080C504F57EECAEF001C56BF502C56CF556
:1046D00005D0000E05016C6F090E6B6F0501685166
:1046E000D8B461AF20D0000E8225D96E060E83218A
:1046F000DA6E2E0EDF6E824B832B7107D8A0720705
:10470000010E686F10D0000E8225D96E060E83212F
:10471000DA6E300EDF6E824B832B7107D8A07207E2
:104720006407D8A0650764516511D8A4ECD7000EC2
:104730008225D96E060E8321DA6E6B51300FDF6E43
:10474000824B832B7107D8A0720779C528F57AC5EB
:1047500029F57BC52AF57CC52BF57DC513F57EC5EE
:1047600014F57FC515F580C516F588C50FF589C503
:1047700010F58AC511F58BC512F502ECA6F00FC530
:104780002CF510C52DF511C52EF512C52FF5E7EC4A
:10479000AFF028C579F529C57AF52AC57BF52BC573
:1047A0007CF588C528F589C529F58AC52AF58BC504
:1047B0002BF5000E2C6E000E2D6E200E2E6E410E6F
:1047C0002F6E68ECAAF028C588F529C589F52AC599
:1047D0008AF52BC58BF505016007D8A06107774BDB
:1047E000782B6D51775D7851800A5C6E6E51800A2E
:1047F0005C58D8B008D083BF27D7835104E14B0E53
:10480000825DD8A021D7000E786F4F0E776F000E13
:104810007725D96E060E7821DA6E000EDF6E000E57
:104820005C6E060E5D6E82515C5E83515D5A7751FF
:104830005C24016E78515D20026E000E036E060E40
:10484000046E82C505F583C506F50AECB0F0825109
:10485000775D826F83517859836F8151D8B402D0CC
:10486000010E01D0000E776F786B8151D8B40BD058
:104870008207D8A08307000E8225D96E060E8321F9
:10488000DA6E81C5DFF47751715F7851725B55C57F
:1048900012F556C513F5000E8225146E060E8321FF
:1048A000156E71C516F572C517F520ECAFF0120044
:1048B0008EC5D9F48FC5DAF4DEC4F6F4DDC4F7F49E
:1048C000000EF86E0800F550250AD8A486D18EC5D2
:1048D000D9F48FC5DAF4DE2A000EDD22000EBD6F9A
:1048E000000EBC6FBCC5C2F5BE69BF698EC5D9F4E8
:1048F0008FC5DAF4DEC4F6F4DDC4F7F4000EF86E0A
:104900000800F5502A0AD8A423D08EC5D9F48FC543
:10491000DAF4DE2A000EDD2290C5D9F491C5DAF46E
:10492000DFC492F5020EDE26DFC493F5000EDD2211
:1049300092C5D9F493C5DAF4DEC4BCF5DDC4BDF587
:10494000BDAF36D0C281BC6DBD1FD8B0BD2B30D03D
:104950008EC5D9F48FC5DAF4DEC407F5DDC408F5D9
:1049600020ECADF007C5BCF508C5BDF507D08EC578
:10497000D9F48FC5DAF4DE2A000EDD228EC5D9F413
:104980008FC5DAF4DEC4F6F4DDC4F7F4000EF86E79
:104990000800F5C492F5D00E05019225936F946B33
:1049A000FF0E9423945104E10A0E935DD8A0DFD743
:1049B0008EC5D9F48FC5DAF4DEC4F6F4DDC4F7F49D
:1049C000000EF86E0800F5502E0AD8A466D0000E2E
:1049D000BF6F000EBE6F8EC5D9F48FC5DAF4DE2A24
:1049E000000EDD228EC5D9F48FC5DAF4DEC4F6F4EC
:1049F000DDC4F7F4000EF86E0800F5502A0AD8A4BA
:104A00001CD08EC5D9F48FC5DAF4DE2A000EDD2263
:104A100090C5D9F491C5DAF4DFC492F5020EDE2612
:104A2000DFC493F5000EDD2292C5D9F493C5DAF404
:104A3000DEC4BEF5DDC4BFF530D08EC5D9F48FC558
:104A4000DAF4DEC407F5DDC408F520ECADF007C5E7
:104A5000BEF508C5BFF507D08EC5D9F48FC5DAF409
:104A6000DE2A000EDD228EC5D9F48FC5DAF4DEC44D
:104A7000F6F4DDC4F7F4000EF86E0800F5C492F504
:104A8000D00E05019225936F946BFF0E94239451E1
:104A900004E10A0E935DD8A0DFD78EC5D9F48FC587
:104AA000DAF4DEC49EF5DDC49FF59EC5F6F49FC51D
:104AB000F7F4000EF86E0800F5C49DF508D09E4B83
:104AC0009F2B17D06C0E01D0000E9D6F12D09D5100
:104AD000926F936B9351000AD8A4F6D792514C0A67
:104AE000D8B4EDD72A0AD8B4EDD70A0AD8B4E7D794
:104AF000EBD79EC5F6F49FC5F7F4000EF86E0800DC
:104B0000F550660AD8B41AD060D090C5D9F491C5D2
:104B1000DAF4DFC492F5040EDE26DFC493F5000E4E
:104B2000DD2292C5D9F493C5DAF4DEC495F5DEC46E
:104B300096F5DEC497F5DEC498F50ED09D51926FC0
:104B4000936B9351000AD8A407D092514C0AD8B461
:104B5000DCD7200AD8B4D9D7010E9E25926F000E5B
:104B60009F21936F8EC5D9F48FC5DAF492C5DEF418
:104B700093C5DDF418D08CC555F58DC556F595C592
:104B800057F596C558F597C559F598C55AF59EC578
:104B9000F6F49FC5F7F4000EF86E0800F5C45BF557
:104BA00002ECA0F012009EC5F6F49FC5F7F4000ECB
:104BB000F86E0800F550926F936B9351000AD8A4D9
:104BC00004D09251660AD8B4D6D78EC5D9F48FC511
:104BD000DAF4DE2A000EDD2212008EC5D9F48FC56C
:104BE000DAF4DEC4F6F4DDC4F7F4000EF86E080063
:104BF000F550026E036A8CC504F58DC505F560ECB1
:104C0000AFF0E3D71250800B1B6E12501224216EAE
:104C100011BE21802150D8B40DD02128D8A408D0AD
:104C2000000E0F6E000E106E000E116E000E126E52
:104C3000118E08D0000E0F6E000E106E000E116E59
:104C4000000E126E1650800B1B1A165016241C6E86
:104C500015BE1C801C50D8B40DD01C28D8A408D078
:104C6000000E136E000E146E000E156E000E166E02
:104C7000158E08D0000E136E000E146E000E156E09
:104C8000000E166E1C50D8B403D02150D8A409D001
:104C9000000E0F6E000E106E000E116E000E126EE2
:104CA000120015500F02F3C426F5F4C427F5265060
:104CB0001D6E1E6A1F6A206A2750226E236A246AAC
:104CC000256A14501002F3C426F5F4C427F52650C3
:104CD0001D26000E1E221F22202227502226000EF3
:104CE00023222422252213501102F3C426F5F4C4F2
:104CF00027F526501D26000E1E221F222022275097
:104D00002226000E2322242225221FC520F51EC59F
:104D10001FF51DC51EF51D6A13501002F3C426F5BC
:104D2000F4C427F526501D2627501E22000E1F22F0
:104D3000000E202214500F02F3C426F5F4C427F508
:104D400026501D2627501E22000E1F22000E202254
:104D50001FC520F51EC51FF51DC51EF51D6A135084
:104D60000F02F3C426F5F4C427F526501D2627505C
:104D70001E22000E1F22000E202215501002F3C426
:104D800026F5F4C427F52650222627502322000EAC
:104D90002422000E252214501102F3C426F5F4C477
:104DA00027F52650222627502322000E2422000E0B
:104DB000252215501102F3C426F5F4C427F5265018
:104DC000176E2750186E196A1A6A19C51AF518C590
:104DD00019F517C518F5176A1750222618502322FF
:104DE000195024221A50252220502226000E232258
:104DF000242225221FC520F51EC51FF51DC51EF541
:104E00001D6A1C5021C517F5186A1726000E1822B6
:104E1000820E1724266EFF0E1820276E0FD0D89012
:104E2000223623362436253620BE2280D8901D36E1
:104E30001E361F3620362606D8A0270624AEEFD70A
:104E4000000E1C6E20AE17D0FF0E1D14176EFF0E45
:104E50001E14186EFF0E1F14196E7F0E20141A6E8A
:104E60001750181019101A10D8B403D0010E1C6E68
:104E700002D022B0FBD71C50D8B41FD0010E22267E
:104E8000000E23222422252225A017D022C517F5A3
:104E900023C518F524C519F525C51AF51A341A3293
:104EA00019321832173217C522F518C523F519C55E
:104EB00024F51AC525F5264A272A27BE0DD02750E6
:104EC00003E12628D8A008D0000E226E000E236E23
:104ED000800E246E7F0E20D027BE05D027500EE115
:104EE0002604D8B00BD0000E226E000E236E000EEA
:104EF000246E000E256E000E1B6E0FD026C521F508
:104F0000FF0E2216FF0E23167F0E2416000E251606
:104F100021B0248ED8902130256E1B50251222C539
:104F20000FF523C510F524C511F525C512F512009E
:104F30000450800B0D6E045004240F6E03BE0F80CE
:104F40000F50D8B40DD00F28D8A408D0000E016E91
:104F5000000E026E000E036E000E046E038E06D06D
:104F6000000E016E000E026E000E036E000E046E47
:104F70000850800B0E6E0D500E18D8A40D8C0850E2
:104F800008240E6E07BE0E800E50D8B40DD00E2829
:104F9000D8A408D0000E056E000E066E000E076E37
:104FA000000E086E078E06D0000E056E000E066E0F
:104FB000000E076E000E086E0F500E5CD8B022D0A7
:104FC0000DAC02D0800E0D1A0FC510F50EC50FF5F1
:104FD00010C50EF501C510F505C501F510C505F59F
:104FE00002C510F506C502F510C506F503C510F596
:104FF00007C503F510C507F504C510F508C504F588
:1050000010C508F5000E106E0F500EC509F50A6A9E
:10501000095E000E0A5A0ABE2CD00A5004E11A0E8C
:10502000095CD8A026D00150021003100410D8B497
:1050300002D0010E01D0000E106E000E016E000EA7
:10504000026E000E036E000E046E0EC50FF515D035
:1050500010A005D0D89010300109106E02D0D89061
:10506000103201B0108E04340432033202320132A5
:105070000F2A0E500F5CD8A0EBD70DBC28D00F50D4
:10508000D8A409D0000E016E000E026E000E036E51
:10509000000E046E12000550012606500222075031
:1050A00003220850042204A071D010A005D0D8908B
:1050B00010300109106E02D0D890103201B0108E5D
:1050C000043404320332023201320F2A5FD0055019
:1050D000015C06500258075003580450800A096EBC
:1050E0000850800A0958D8B025D00150055C096ED7
:1050F000025006580A6E035007580B6E04500858A9
:105100000C6EFF0E0924016EFF0E0A20026EFF0EC8
:105110000B20036EFF0E0C20046E800E0D1A106C17
:105120001050D8A40FD0010E0126000E0222032237
:10513000042208D00550015E0650025A0750035A57
:105140000850045A0150021003100410D8A41CD0B7
:105150001050D8A419D0000E016E000E026E000E81
:10516000036E000E046E1200D8900136023603362C
:10517000043610BE018010A002D0D88001D0D89093
:1051800010360F50D8A40F0603AEEED7000E0E6EE9
:1051900010AE0BD010C509F57F0E0916D8B403D098
:1051A000010E0E6E02D001B0FBD70E50D8B420D045
:1051B000010E0126000E02220322042204A018D0B0
:1051C00001C509F502C50AF503C50BF504C50CF5C3
:1051D0000C340C320B320A32093209C501F50AC50A
:1051E00002F50BC503F50CC504F50F28D8A40F2A4A
:1051F0000F28D8B403D00F50D8A40DD0000E016EE4
:10520000000E026E000E036E000E046E0F50D8A446
:1052100002D0000E0D6E0FA002D0038E01D0039EAF
:10522000D8900F30046E0DBE048E01C501F502C585
:1052300002F503C503F504C504F51200080E0001CC
:10524000B16F000E0401186F1969C968000E086F6C
:105250000969C768000E106F1169C8683F0E020126
:10526000036F04010095C694000E436F000E446F57
:10527000050E456F000E476F4691468B468F209571
:10528000C294CA942093C282CA9200910181C680BE
:1052900000930183C682009B018BC68A0099BE8859
:1052A000C6982091C280CA900097BE86C696010E0D
:1052B0000201D56FA00ED46FD189D18B0401009F5C
:1052C000C68E070E0201766F0401009DBE8CC69C3F
:1052D000260E0201076FD28F000E136E240E146E7D
:1052E000F40E156E410E166E04014351016E4451C9
:1052F000026E4551036E046A000E80ECACF001C5ED
:105300000FF502C510F503C511F504C512F502EC41
:10531000A6F00FC528F510C529F511C52AF512C547
:105320002BF5000E2C6E240E2D6E740E2E6E490E73
:105330002F6E68ECAAF028C5AEF529C5AFF52AC5D1
:10534000B0F52BC5B1F5E10E0501A66FFF0EA76FF5
:10535000AEC5A8F5AFC5A9F5B0C5AAF5B1C5ABF501
:10536000ABECB0F0000E0201616F050E626F1F0E14
:10537000636F1E0E646F1D0E676F1C0E686F010E4B
:105380000001D56F020ED86F030ED96F060EDA6FCB
:105390007F0EDB6F020EDC6F040EDD6F100EDE6F12
:1053A000400EDF6F000ED76F820ED66F020ED56FE4
:1053B000020ED86F030ED96F010EDA6F7F0EDB6F0E
:1053C000010EDC6F040EDD6F200EDE6F400EDF6F0E
:1053D000000ED76F820ED66F000E0501B36F000E60
:1053E000B26F000EB225D96E200EB321DA6E000E18
:1053F000DF6EB24BB32BB3BFF4D7200EB35DD8A092
:10540000F0D7010EF86E550E0401596FAA0E596FB0
:105410005991080E5D6F000E5E6F000E5F6F550EA6
:10542000596FAA0E596F5981D68EC284CEB0FED75D
:105430000001D4A509D0C86ACFC4F6F4D1C4F7F4EA
:105440000800F5C4C0F43ED0D4A315D0CEAA0AD02B
:10545000C86ACFC4D9F4D1501F0B2009DA6EDFC45B
:10546000C0F430D0CFC4D9F4D1501F0B2009DA6E6C
:10547000D0C4DFF427D0CEAA1AD0D1C4C1F5CFC48E
:10548000C0F5000EC86E0501C00507E1E00EC119A8
:10549000D8A403D0B7C4C0F415D0E00EC119C01110
:1054A000D8A403D0C7C2C0F40DD0C0680BD0D1C4FB
:1054B000C1F5CFC4C0F5E00E0501C119C011D8B4C3
:1054C000D0C4C9F2BE9800F000F0C868BE88AED75C
:1054D0002B50800B386E2B502B243F6E2ABE3F8002
:1054E0003F50D8B40DD03F28D8A408D0000E286E65
:1054F000000E296E000E2A6E000E2B6E2A8E06D02C
:10550000000E286E000E296E000E2A6E000E2B6E05
:105510002F50800B381A2F502F24406E2EBE408003
:105520004050D8B40DD04028D8A408D0000E2C6E1E
:10553000000E2D6E000E2E6E000E2F6E2E8E06D0DB
:10554000000E2C6E000E2D6E000E2E6E000E2F6EB5
:105550002C502D102E102F10D8A417D0000E286E0E
:10556000000E296E000E2A6E000E2B6E800E2A127F
:105570007F0E2B1238502B1228C528F529C529F586
:105580002AC52AF52BC52BF512003F50D8A409D007
:10559000000E286E000E296E000E2A6E000E2B6E75
:1055A000120040503FC530F5316A305E000E315A6E
:1055B0007F0E3024396E000E31203A6E28C534F546
:1055C00029C535F52AC536F52BC537F5000E286EE9
:1055D000000E296E000E2A6E000E2B6E000E3B6E22
:1055E000000E3C6E000E3D6E000E3E6E000E406ED4
:1055F00028D04050D8B411D0D8903436353636360D
:105600003736D890283629362A362B363EBE2880A3
:10561000D8903B363C363D363E362C50345C2D50CF
:1056200035582E5036582F503758D8A009D03E8CB8
:105630002C50345E2D50355A2E50365A2F50375A32
:10564000402A190E4064D5D7345035103610371023
:10565000D8B411D03B800FD0D890283629362A36BE
:105660002B363EBE2880D8903B363C363D363E3603
:105670003906D8A03A062AAEEFD7000E406E3EAEED
:1056800017D0FF0E3B14306EFF0E3C14316EFF0E30
:105690003D14326E7F0E3E14336E30503110321096
:1056A0003310D8B403D0010E406E02D028B0FBD71F
:1056B0004050D8B41FD0010E2826000E29222A22DD
:1056C0002B222BA017D028C530F529C531F52AC5C6
:1056D00032F52BC533F53334333232323132303296
:1056E00030C528F531C529F532C52AF533C52BF566
:1056F000394A3A2A3ABE10D03A5003E13928D8A0A4
:105700000BD0000E3A6E3968000E286E000E296E1E
:10571000000E2A6E000E2B6E3ABE05D03A5011E1F3
:105720003904D8B00ED0000E3A6E000E396E000E5D
:10573000286E000E296E000E2A6E000E2B6E000ED3
:10574000386E39C53FF53FA002D02A8E01D02A9E7F
:10575000D8903F302B6E0ED7B4C551F5B5C552F574
:10576000B6C553F5B7C554F541C551F542C552F517
:1057700043C553F544C554F5810E456EFF0E466E84
:1057800051C547F552C548F553C549F554C54AF5C5
:10579000180E05D0D8904A32493248324732E82EA6
:1057A000F9D7475045244F6E000E4620506E50BE2C
:1057B0000FD0505004E1170E4F5CD8A009D041C55E
:1057C00041F542C542F543C543F544C544F51200D1
:1057D00050BE5BD04FC545F5FF0E466EFF0E476EBF
:1057E0007F0E486E000E496E456601D007D04934E1
:1057F0004932483247324632452EF6D746C54BF538
:1058000047C54CF548C54DF549C54EF54B505114AB
:10581000456E4C505214466E4D505314476E4E50C8
:105820005414486E4550461047104810D8B4C7D796
:1058300051C545F552C546F553C547F554C548F51C
:10584000200E05D0D8904832473246324532E82EF5
:10585000F9D74550D8B408D04B5051264C5052225D
:105860004D5053224E5054224B1C456E4C1C466EDC
:105870004D1C476E4E1C486E4550511646505216F0
:10588000475053164850541632D051C545F552C5AD
:1058900046F553C547F554C548F5200E05D0D890B8
:1058A0004832473246324532E82EF9D7456608D0AD
:1058B000000E516E000E526E000E536E000E16D08A
:1058C000D8905134456E5234466E5334476E54343A
:1058D000486E4550461047104810D8B408D0000E06
:1058E000516E000E526E800E536EBF0E546E51C537
:1058F00041F552C542F553C543F554C544F5120070
:10590000096E0950D8A404AE1AD001C505F502C528
:1059100006F503C507F504C508F5051E061E071E96
:10592000081E052A000E06220722082205C50BF5CF
:1059300006C50CF507C50DF508C50EF508D001C55F
:105940000BF502C50CF503C50DF504C50EF50150A8
:10595000021003100410D8A409D0000E016E000E2E
:10596000026E000E036E000E046E1200960E0A6E9A
:1059700006D00A2AD8900E320D320C320B32000EAD
:105980000B14056E000E0C14066E000E0D14076E3F
:10599000FE0E0E14086E0550061007100810D8B43D
:1059A0000DD0E7D70A2A010E0B26000E0C220D227D
:1059B0000E22D8900E320D320C320B32000E0B1428
:1059C000056E000E0C14066E000E0D14076EFF0E11
:1059D0000E14086E0550061007100810D8B407D032
:1059E000E1D70A06D8900B360C360D360E360DBEB2
:1059F00003D0020E0A60F5D70AA00D9ED8900A3295
:105A00000AC505F5066A076A086A05C508F5076A42
:105A1000066A056A05500B1206500C1207500D124B
:105A200008500E120950D8A404AE01D00E8E0BC53A
:105A300001F50CC502F50DC503F50EC504F5120000
:105A4000000E0F6E000E0E6E000E0D6E000E0C6E30
:105A500002D0074A082A07C5F6F408C5F7F4000E75
:105A6000F86E0800F550200AD8B4F3D707C5F6F44D
:105A700008C5F7F4000EF86E0800F5C409F5F70E36
:105A800009240A6E0B6AFF0E0B220B500CE1050E67
:105A90000A5CD8B008D0DDD7000E0D6E010E0C6E7A
:105AA000074A082A32D007C5F6F408C5F7F4000EF5
:105AB000F86E0800F550096E0A6A0A50000AD8A468
:105AC00024D009502B0AD8B4EBD7060AD8B4E4D7AF
:105AD0001CD00EC501F50FC502F5000E046E0A0EAE
:105AE000036EBEECB0F007C5F6F408C5F7F4000E7F
:105AF000F86E0800F550015E000E025A300E0124C7
:105B00000E6E000E02200F6ECBD707C5F6F408C547
:105B1000F7F4000EF86E0800F5C409F5D00E09245C
:105B20000A6E0B6AFF0E0B220B5004E10A0E0A5C90
:105B3000D8A0CFD70C500D10D8A40DD00EC509F5A4
:105B40000FC50AF5091E0A1E094A0A2A09C507F5E2
:105B50000AC508F512000EC507F50FC508F51200B5
:105B6000000E2814306E000E2914316E800E2A1497
:105B7000326E7F0E2B14336E3050311032103310D2
:105B8000D8A408D0000E286E000E296E000E2A6ED2
:105B9000000E2B6E000E2C14306E000E2D14316E84
:105BA000800E2E14326E7F0E2F14336E3050311053
:105BB00032103310D8A408D0000E2C6E000E2D6EBB
:105BC000000E2E6E000E2F6E2BAE09D0286C291EF3
:105BD000D8B0292A2A1ED8B02A2A800E2B562FAEDA
:105BE00009D02C6C2D1ED8B02D2A2E1ED8B02E2AEE
:105BF000800E2F56000E281A000E291A000E2A1A9F
:105C0000800E2B1A000E2C1A000E2D1A000E2E1AC2
:105C1000800E2F1A2C50285C2D5029582E502A58AF
:105C20002F502B58D8B002D0D8901200D880120034
:105C3000B8C50BF5B9C50CF5BAC50DF5BBC50EF564
:105C400001C50BF502C50CF503C50DF504C50EF530
:105C50000BC505F50CC506F50DC507F50EC508F510
:105C6000180E05D0D8900832073206320532E82ED9
:105C7000F9D70550096E0A6A09500A10D8A419D03C
:105C8000D8900B34056E0C34066E0D34076E0E344E
:105C9000086E0550061007100810D8A405D0000E95
:105CA000026E020E016E1200000E026E030E016EF5
:105CB000120009280A10D8A41CD00BC505F50CC584
:105CC00006F50DC507F50EC508F5090ED890053681
:105CD000063607360836E82EF9D7055006100710A5
:105CE0000810D8A402D0010E01D0000E016E026A85
:105CF0001200000E026E040E016E12000334043412
:105D00000A6E0A50D8A409D0000E016E000E026E71
:105D1000000E036E000E046E120001C505F502C5EB
:105D200006F503C507F504C508F5200E05D0D89083
:105D30000832073206320532E82EF9D70550096ECF
:105D4000038EFF0E0116FF0E0216FF0E0316000E45
:105D50000416960E0A5E0AAE0DD00A50800A970FFE
:105D6000D8A0D2D7D89004320332023201320A3E90
:105D7000F9D70DD01F0E0A6407D0C6D7D8900136C8
:105D80000236033604360A060A50D8A4F7D709505B
:105D9000D8B408D0041E031E021E016C000E02229D
:105DA0000322042201C501F502C502F503C503F56E
:105DB00004C504F51200000E0114096E000E021451
:105DC0000A6E800E03140B6E7F0E04140C6E0950C5
:105DD0000A100B100C10D8A408D0000E016E000E93
:105DE000026E000E036E000E046E000E0514096EA6
:105DF000000E06140A6E800E07140B6E7F0E081438
:105E00000C6E09500A100B100C10D8A408D0000E0C
:105E1000056E000E066E000E076E000E086E055031
:105E200001180AE10650021807E10750031804E1BF
:105E300008500418D8B402D0D8901200D8801200AC
:105E4000C2A10AD014C50BF515C50CF512C50DF588
:105E500013C50EF549ECB0F017BE05D016C51BF5FD
:105E600017C51CF504D0000E1C6E000E1B6E000E34
:105E70001A6E000E196E0CD0000E036E200E026E0C
:105E800012C504F513C505F560ECAFF0194A1A2ADE
:105E90001B50195C1A50800A186E1C50800A185842
:105EA000D8A0EAD70501C2B1120014C50BF515C57B
:105EB0000CF512C50DF513C50EF549ECB0F0120046
:105EC00004500510D8B404D004500510D8A404D050
:105ED0000250E3ECB0F0120020EE09F00450D92695
:105EE0000550DA22DE50DE10D8B416D020EE09F0CC
:105EF0000450D9260550DA2210EE03F00450E126B2
:105F00000550E222DE50E65CE650800A0A6EDE5062
:105F1000800A0A58D8B0120020EE03F00450D926A7
:105F20000550DA22DE2A000EDD22120004BE07D060
:105F30000450031002101DE10104D8B01AD001C5AD
:105F400005F502C506F503C507F504C508F5051EE8
:105F5000061E071E081E052A000E0622072208221A
:105F600005C501F506C502F507C503F508C504F525
:105F7000120001C501F502C502F503C503F504C50C
:105F800004F51200A2C55EF5A3C55FF50FD0A0C54C
:105F90008CF5A1C58DF55E0E05018E6F050E8F6F18
:105FA000A4C590F5A5C591F558ECA4F05EC5F6F42E
:105FB0005FC5F7F4000EF86E0800F5500009D8A48C
:105FC000E6D7000E0501A16F000EA06F1200000EB3
:105FD0002C1A000E2D1A000E2E1A800E2F1A28C50C
:105FE00001F529C502F52AC503F52BC504F52CC515
:105FF00005F52DC506F52EC507F52FC508F598EC56
:10600000A7F001C528F502C529F503C52AF504C581
:106010002BF5120003C509F504C50AF501C507F5FE
:1060200002C508F510D009C5D9F40AC5DAF4DF5065
:106030000B6E094A0A2A07C5D9F408C5DAF40BC55C
:10604000DFF4074A082A0506D8A006060528EBE172
:106050000628D8B41200E7D703C505F504C506F530
:1060600001C507F502C508F505C5F6F406C5F7F440
:10607000054A062A000EF86E07C5D9F408C5DAF4F9
:10608000074A082A0800F5C4DFF4DF50D8B412002C
:10609000EBD7000E116E000E106E0BD00FC502F57F
:1060A000036A0DC504F50EC505F560ECAFF0104AA6
:1060B000112A10500B24D96E11500C20DA6EDF50CB
:1060C0000F6E0F50D8B41200E9D7010E056E200EE6
:1060D00001180210D8B40ED0F70E0124036EFF0E83
:1060E0000220046E045004E1050E035CD8A002D027
:1060F000000E056E05C501F5026A1200015002107E
:1061000003100410D8B408D0000E011A000E021AB1
:10611000000E031A800E041A01C501F502C502F52E
:1061200003C503F504C504F5120001EE00F2500E9C
:10613000EE6AE806FDE101EEB4F1100EEE6AE80643
:10614000FDE10401080E5D6F000E5E6F000E5F6FD3
:1061500000011EEFA9F0A80EAC6F050EAD6F000E8A
:10616000A06F000EA16FA6C5A2F5A7C5A3F5AC0E42
:10617000A46F050EA56FC2ECAFF012000150030230
:10618000F3C405F5F4C406F501500402F3500626E5
:1061900002500302F350062605C501F506C502F5B7
:1061A0001200D00E0124036EFF0E0220046E045074
:1061B00006E10A0E035CD8B002D0010E01D0000E39
:1061C000016E026A1200016EB7A2FED701C5C9F2C4
:0261D0001200BB
:0261D4001100B8
:020000040020DA
:10000000FF0FFF0FFF0FFF0FFF0FFF0FFF0FFF0F80
:10001000FF0FFF0FFF0FFF0FFF0FFF0FFF0FFF0F70
:10002000FF0FFF0FFF0FFF0FFF0FFF0FFF0FFF0F60
:10003000FF0FFF0FFF0FFF0FFF0FFF0FFF0FFF0F50
:020000040030CA
:100000008C2FFFF79FFFFFFFFFFFFFFFFFFFFFFFAB
:10001000FFFFFFFFFFFFFFFFFFFFFFFFFFFFFFFFF0
:03002000FFFFFFE0
:00000001FF
